{
  "_format": "hh-sol-artifact-1",
  "contractName": "NftToken",
  "sourceName": "contracts/NftToken.sol",
  "abi": [
    {
      "inputs": [],
      "stateMutability": "nonpayable",
      "type": "constructor"
    },
    {
      "anonymous": false,
      "inputs": [
        {
          "indexed": true,
          "internalType": "address",
          "name": "owner",
          "type": "address"
        },
        {
          "indexed": true,
          "internalType": "address",
          "name": "approved",
          "type": "address"
        },
        {
          "indexed": true,
          "internalType": "uint256",
          "name": "tokenId",
          "type": "uint256"
        }
      ],
      "name": "Approval",
      "type": "event"
    },
    {
      "anonymous": false,
      "inputs": [
        {
          "indexed": true,
          "internalType": "address",
          "name": "owner",
          "type": "address"
        },
        {
          "indexed": true,
          "internalType": "address",
          "name": "operator",
          "type": "address"
        },
        {
          "indexed": false,
          "internalType": "bool",
          "name": "approved",
          "type": "bool"
        }
      ],
      "name": "ApprovalForAll",
      "type": "event"
    },
    {
      "anonymous": false,
      "inputs": [
        {
          "indexed": true,
          "internalType": "address",
          "name": "previousOwner",
          "type": "address"
        },
        {
          "indexed": true,
          "internalType": "address",
          "name": "newOwner",
          "type": "address"
        }
      ],
      "name": "OwnershipTransferred",
      "type": "event"
    },
    {
      "anonymous": false,
      "inputs": [
        {
          "indexed": true,
          "internalType": "address",
          "name": "from",
          "type": "address"
        },
        {
          "indexed": true,
          "internalType": "address",
          "name": "to",
          "type": "address"
        },
        {
          "indexed": true,
          "internalType": "uint256",
          "name": "tokenId",
          "type": "uint256"
        }
      ],
      "name": "Transfer",
      "type": "event"
    },
    {
      "inputs": [
        {
          "internalType": "address",
          "name": "to",
          "type": "address"
        },
        {
          "internalType": "uint256",
          "name": "tokenId",
          "type": "uint256"
        }
      ],
      "name": "approve",
      "outputs": [],
      "stateMutability": "nonpayable",
      "type": "function"
    },
    {
      "inputs": [
        {
          "internalType": "address",
          "name": "owner",
          "type": "address"
        }
      ],
      "name": "balanceOf",
      "outputs": [
        {
          "internalType": "uint256",
          "name": "",
          "type": "uint256"
        }
      ],
      "stateMutability": "view",
      "type": "function"
    },
    {
      "inputs": [],
      "name": "count",
      "outputs": [
        {
          "internalType": "uint256",
          "name": "",
          "type": "uint256"
        }
      ],
      "stateMutability": "view",
      "type": "function"
    },
    {
      "inputs": [
        {
          "internalType": "uint256",
          "name": "tokenId",
          "type": "uint256"
        }
      ],
      "name": "getApproved",
      "outputs": [
        {
          "internalType": "address",
          "name": "",
          "type": "address"
        }
      ],
      "stateMutability": "view",
      "type": "function"
    },
    {
      "inputs": [
        {
          "internalType": "address",
          "name": "owner",
          "type": "address"
        },
        {
          "internalType": "address",
          "name": "operator",
          "type": "address"
        }
      ],
      "name": "isApprovedForAll",
      "outputs": [
        {
          "internalType": "bool",
          "name": "",
          "type": "bool"
        }
      ],
      "stateMutability": "view",
      "type": "function"
    },
    {
      "inputs": [
        {
          "internalType": "string",
          "name": "_tokenURI",
          "type": "string"
        }
      ],
      "name": "isCountedOwn",
      "outputs": [
        {
          "internalType": "bool",
          "name": "",
          "type": "bool"
        }
      ],
      "stateMutability": "view",
      "type": "function"
    },
    {
      "inputs": [],
      "name": "name",
      "outputs": [
        {
          "internalType": "string",
          "name": "",
          "type": "string"
        }
      ],
      "stateMutability": "view",
      "type": "function"
    },
    {
      "inputs": [],
      "name": "owner",
      "outputs": [
        {
          "internalType": "address",
          "name": "",
          "type": "address"
        }
      ],
      "stateMutability": "view",
      "type": "function"
    },
    {
      "inputs": [
        {
          "internalType": "uint256",
          "name": "tokenId",
          "type": "uint256"
        }
      ],
      "name": "ownerOf",
      "outputs": [
        {
          "internalType": "address",
          "name": "",
          "type": "address"
        }
      ],
      "stateMutability": "view",
      "type": "function"
    },
    {
      "inputs": [
        {
          "internalType": "address",
          "name": "to",
          "type": "address"
        },
        {
          "internalType": "string",
          "name": "_tokenURI",
          "type": "string"
        }
      ],
      "name": "payTomint",
      "outputs": [
        {
          "internalType": "uint256",
          "name": "",
          "type": "uint256"
        }
      ],
      "stateMutability": "payable",
      "type": "function"
    },
    {
      "inputs": [],
      "name": "renounceOwnership",
      "outputs": [],
      "stateMutability": "nonpayable",
      "type": "function"
    },
    {
      "inputs": [
        {
          "internalType": "address",
          "name": "to",
          "type": "address"
        },
        {
          "internalType": "string",
          "name": "_tokenURI",
          "type": "string"
        }
      ],
      "name": "safeMint",
      "outputs": [],
      "stateMutability": "nonpayable",
      "type": "function"
    },
    {
      "inputs": [
        {
          "internalType": "address",
          "name": "from",
          "type": "address"
        },
        {
          "internalType": "address",
          "name": "to",
          "type": "address"
        },
        {
          "internalType": "uint256",
          "name": "tokenId",
          "type": "uint256"
        }
      ],
      "name": "safeTransferFrom",
      "outputs": [],
      "stateMutability": "nonpayable",
      "type": "function"
    },
    {
      "inputs": [
        {
          "internalType": "address",
          "name": "from",
          "type": "address"
        },
        {
          "internalType": "address",
          "name": "to",
          "type": "address"
        },
        {
          "internalType": "uint256",
          "name": "tokenId",
          "type": "uint256"
        },
        {
          "internalType": "bytes",
          "name": "_data",
          "type": "bytes"
        }
      ],
      "name": "safeTransferFrom",
      "outputs": [],
      "stateMutability": "nonpayable",
      "type": "function"
    },
    {
      "inputs": [
        {
          "internalType": "address",
          "name": "operator",
          "type": "address"
        },
        {
          "internalType": "bool",
          "name": "approved",
          "type": "bool"
        }
      ],
      "name": "setApprovalForAll",
      "outputs": [],
      "stateMutability": "nonpayable",
      "type": "function"
    },
    {
      "inputs": [
        {
          "internalType": "bytes4",
          "name": "interfaceId",
          "type": "bytes4"
        }
      ],
      "name": "supportsInterface",
      "outputs": [
        {
          "internalType": "bool",
          "name": "",
          "type": "bool"
        }
      ],
      "stateMutability": "view",
      "type": "function"
    },
    {
      "inputs": [],
      "name": "symbol",
      "outputs": [
        {
          "internalType": "string",
          "name": "",
          "type": "string"
        }
      ],
      "stateMutability": "view",
      "type": "function"
    },
    {
      "inputs": [
        {
          "internalType": "uint256",
          "name": "tokenId",
          "type": "uint256"
        }
      ],
      "name": "tokenURI",
      "outputs": [
        {
          "internalType": "string",
          "name": "",
          "type": "string"
        }
      ],
      "stateMutability": "view",
      "type": "function"
    },
    {
      "inputs": [
        {
          "internalType": "address",
          "name": "from",
          "type": "address"
        },
        {
          "internalType": "address",
          "name": "to",
          "type": "address"
        },
        {
          "internalType": "uint256",
          "name": "tokenId",
          "type": "uint256"
        }
      ],
      "name": "transferFrom",
      "outputs": [],
      "stateMutability": "nonpayable",
      "type": "function"
    },
    {
      "inputs": [
        {
          "internalType": "address",
          "name": "newOwner",
          "type": "address"
        }
      ],
      "name": "transferOwnership",
      "outputs": [],
      "stateMutability": "nonpayable",
      "type": "function"
    }
  ],
  "bytecode": "0x60806040523480156200001157600080fd5b506040518060400160405280600881526020017f4e6674546f6b656e0000000000000000000000000000000000000000000000008152506040518060400160405280600381526020017f544b4e0000000000000000000000000000000000000000000000000000000000815250816000908051906020019062000096929190620001a6565b508060019080519060200190620000af929190620001a6565b505050620000d2620000c6620000d860201b60201c565b620000e060201b60201c565b620002bb565b600033905090565b6000600760009054906101000a900473ffffffffffffffffffffffffffffffffffffffff16905081600760006101000a81548173ffffffffffffffffffffffffffffffffffffffff021916908373ffffffffffffffffffffffffffffffffffffffff1602179055508173ffffffffffffffffffffffffffffffffffffffff168173ffffffffffffffffffffffffffffffffffffffff167f8be0079c531659141344cd1fd0a4f28419497f9722a3daafe3b4186f6b6457e060405160405180910390a35050565b828054620001b49062000256565b90600052602060002090601f016020900481019282620001d8576000855562000224565b82601f10620001f357805160ff191683800117855562000224565b8280016001018555821562000224579182015b828111156200022357825182559160200191906001019062000206565b5b50905062000233919062000237565b5090565b5b808211156200025257600081600090555060010162000238565b5090565b600060028204905060018216806200026f57607f821691505b602082108114156200028657620002856200028c565b5b50919050565b7f4e487b7100000000000000000000000000000000000000000000000000000000600052602260045260246000fd5b6134c680620002cb6000396000f3fe60806040526004361061011f5760003560e01c80637e748e78116100a0578063c87b56dd11610064578063c87b56dd146103e5578063d204c45e14610422578063e3c80bbd1461044b578063e985e9c51461047b578063f2fde38b146104b85761011f565b80637e748e78146103005780638da5cb5b1461033d57806395d89b4114610368578063a22cb46514610393578063b88d4fde146103bc5761011f565b806323b872dd116100e757806323b872dd1461021d57806342842e0e146102465780636352211e1461026f57806370a08231146102ac578063715018a6146102e95761011f565b806301ffc9a71461012457806306661abd1461016157806306fdde031461018c578063081812fc146101b7578063095ea7b3146101f4575b600080fd5b34801561013057600080fd5b5061014b6004803603810190610146919061231f565b6104e1565b6040516101589190612809565b60405180910390f35b34801561016d57600080fd5b506101766105c3565b6040516101839190612ac6565b60405180910390f35b34801561019857600080fd5b506101a16105d4565b6040516101ae9190612824565b60405180910390f35b3480156101c357600080fd5b506101de60048036038101906101d991906123b2565b610666565b6040516101eb91906127a2565b60405180910390f35b34801561020057600080fd5b5061021b600480360381019061021691906122e3565b6106eb565b005b34801561022957600080fd5b50610244600480360381019061023f9190612189565b610803565b005b34801561025257600080fd5b5061026d60048036038101906102689190612189565b610863565b005b34801561027b57600080fd5b50610296600480360381019061029191906123b2565b610883565b6040516102a391906127a2565b60405180910390f35b3480156102b857600080fd5b506102d360048036038101906102ce9190612124565b610935565b6040516102e09190612ac6565b60405180910390f35b3480156102f557600080fd5b506102fe6109ed565b005b34801561030c57600080fd5b5061032760048036038101906103229190612371565b610a75565b6040516103349190612809565b60405180910390f35b34801561034957600080fd5b50610352610aa0565b60405161035f91906127a2565b60405180910390f35b34801561037457600080fd5b5061037d610aca565b60405161038a9190612824565b60405180910390f35b34801561039f57600080fd5b506103ba60048036038101906103b59190612253565b610b5c565b005b3480156103c857600080fd5b506103e360048036038101906103de91906121d8565b610b72565b005b3480156103f157600080fd5b5061040c600480360381019061040791906123b2565b610bd4565b6040516104199190612824565b60405180910390f35b34801561042e57600080fd5b506104496004803603810190610444919061228f565b610be6565b005b6104656004803603810190610460919061228f565b610cb7565b6040516104729190612ac6565b60405180910390f35b34801561048757600080fd5b506104a2600480360381019061049d919061214d565b610dbf565b6040516104af9190612809565b60405180910390f35b3480156104c457600080fd5b506104df60048036038101906104da9190612124565b610e53565b005b60007f80ac58cd000000000000000000000000000000000000000000000000000000007bffffffffffffffffffffffffffffffffffffffffffffffffffffffff1916827bffffffffffffffffffffffffffffffffffffffffffffffffffffffff191614806105ac57507f5b5e139f000000000000000000000000000000000000000000000000000000007bffffffffffffffffffffffffffffffffffffffffffffffffffffffff1916827bffffffffffffffffffffffffffffffffffffffffffffffffffffffff1916145b806105bc57506105bb82610f4b565b5b9050919050565b60006105cf6008610fb5565b905090565b6060600080546105e390612d1c565b80601f016020809104026020016040519081016040528092919081815260200182805461060f90612d1c565b801561065c5780601f106106315761010080835404028352916020019161065c565b820191906000526020600020905b81548152906001019060200180831161063f57829003601f168201915b5050505050905090565b600061067182610fc3565b6106b0576040517f08c379a00000000000000000000000000000000000000000000000000000000081526004016106a7906129e6565b60405180910390fd5b6004600083815260200190815260200160002060009054906101000a900473ffffffffffffffffffffffffffffffffffffffff169050919050565b60006106f682610883565b90508073ffffffffffffffffffffffffffffffffffffffff168373ffffffffffffffffffffffffffffffffffffffff161415610767576040517f08c379a000000000000000000000000000000000000000000000000000000000815260040161075e90612a66565b60405180910390fd5b8073ffffffffffffffffffffffffffffffffffffffff1661078661102f565b73ffffffffffffffffffffffffffffffffffffffff1614806107b557506107b4816107af61102f565b610dbf565b5b6107f4576040517f08c379a00000000000000000000000000000000000000000000000000000000081526004016107eb90612926565b60405180910390fd5b6107fe8383611037565b505050565b61081461080e61102f565b826110f0565b610853576040517f08c379a000000000000000000000000000000000000000000000000000000000815260040161084a90612a86565b60405180910390fd5b61085e8383836111ce565b505050565b61087e83838360405180602001604052806000815250610b72565b505050565b6000806002600084815260200190815260200160002060009054906101000a900473ffffffffffffffffffffffffffffffffffffffff169050600073ffffffffffffffffffffffffffffffffffffffff168173ffffffffffffffffffffffffffffffffffffffff16141561092c576040517f08c379a000000000000000000000000000000000000000000000000000000000815260040161092390612966565b60405180910390fd5b80915050919050565b60008073ffffffffffffffffffffffffffffffffffffffff168273ffffffffffffffffffffffffffffffffffffffff1614156109a6576040517f08c379a000000000000000000000000000000000000000000000000000000000815260040161099d90612946565b60405180910390fd5b600360008373ffffffffffffffffffffffffffffffffffffffff1673ffffffffffffffffffffffffffffffffffffffff168152602001908152602001600020549050919050565b6109f561102f565b73ffffffffffffffffffffffffffffffffffffffff16610a13610aa0565b73ffffffffffffffffffffffffffffffffffffffff1614610a69576040517f08c379a0000000000000000000000000000000000000000000000000000000008152600401610a6090612a26565b60405180910390fd5b610a736000611435565b565b60006001600983604051610a899190612767565b908152602001604051809103902054149050919050565b6000600760009054906101000a900473ffffffffffffffffffffffffffffffffffffffff16905090565b606060018054610ad990612d1c565b80601f0160208091040260200160405190810160405280929190818152602001828054610b0590612d1c565b8015610b525780601f10610b2757610100808354040283529160200191610b52565b820191906000526020600020905b815481529060010190602001808311610b3557829003601f168201915b5050505050905090565b610b6e610b6761102f565b83836114fb565b5050565b610b83610b7d61102f565b836110f0565b610bc2576040517f08c379a0000000000000000000000000000000000000000000000000000000008152600401610bb990612a86565b60405180910390fd5b610bce84848484611668565b50505050565b6060610bdf826116c4565b9050919050565b610bee61102f565b73ffffffffffffffffffffffffffffffffffffffff16610c0c610aa0565b73ffffffffffffffffffffffffffffffffffffffff1614610c62576040517f08c379a0000000000000000000000000000000000000000000000000000000008152600401610c5990612a26565b60405180910390fd5b6000610c6e6008610fb5565b9050610c7a6008611816565b610c84838261182c565b610c8e818361184a565b6001600983604051610ca09190612767565b908152602001604051809103902081905550505050565b60006001600983604051610ccb9190612767565b9081526020016040518091039020541415610d1b576040517f08c379a0000000000000000000000000000000000000000000000000000000008152600401610d1290612aa6565b60405180910390fd5b66038d7ea4c68000341015610d65576040517f08c379a0000000000000000000000000000000000000000000000000000000008152600401610d5c90612a06565b60405180910390fd5b6000610d716008610fb5565b9050610d7d6008611816565b610d87848261182c565b610d91818461184a565b6001600984604051610da39190612767565b9081526020016040518091039020819055508091505092915050565b6000600560008473ffffffffffffffffffffffffffffffffffffffff1673ffffffffffffffffffffffffffffffffffffffff16815260200190815260200160002060008373ffffffffffffffffffffffffffffffffffffffff1673ffffffffffffffffffffffffffffffffffffffff16815260200190815260200160002060009054906101000a900460ff16905092915050565b610e5b61102f565b73ffffffffffffffffffffffffffffffffffffffff16610e79610aa0565b73ffffffffffffffffffffffffffffffffffffffff1614610ecf576040517f08c379a0000000000000000000000000000000000000000000000000000000008152600401610ec690612a26565b60405180910390fd5b600073ffffffffffffffffffffffffffffffffffffffff168173ffffffffffffffffffffffffffffffffffffffff161415610f3f576040517f08c379a0000000000000000000000000000000000000000000000000000000008152600401610f3690612866565b60405180910390fd5b610f4881611435565b50565b60007f01ffc9a7000000000000000000000000000000000000000000000000000000007bffffffffffffffffffffffffffffffffffffffffffffffffffffffff1916827bffffffffffffffffffffffffffffffffffffffffffffffffffffffff1916149050919050565b600081600001549050919050565b60008073ffffffffffffffffffffffffffffffffffffffff166002600084815260200190815260200160002060009054906101000a900473ffffffffffffffffffffffffffffffffffffffff1673ffffffffffffffffffffffffffffffffffffffff1614159050919050565b600033905090565b816004600083815260200190815260200160002060006101000a81548173ffffffffffffffffffffffffffffffffffffffff021916908373ffffffffffffffffffffffffffffffffffffffff160217905550808273ffffffffffffffffffffffffffffffffffffffff166110aa83610883565b73ffffffffffffffffffffffffffffffffffffffff167f8c5be1e5ebec7d5bd14f71427d1e84f3dd0314c0f7b2291e5b200ac8c7c3b92560405160405180910390a45050565b60006110fb82610fc3565b61113a576040517f08c379a000000000000000000000000000000000000000000000000000000000815260040161113190612906565b60405180910390fd5b600061114583610883565b90508073ffffffffffffffffffffffffffffffffffffffff168473ffffffffffffffffffffffffffffffffffffffff1614806111b457508373ffffffffffffffffffffffffffffffffffffffff1661119c84610666565b73ffffffffffffffffffffffffffffffffffffffff16145b806111c557506111c48185610dbf565b5b91505092915050565b8273ffffffffffffffffffffffffffffffffffffffff166111ee82610883565b73ffffffffffffffffffffffffffffffffffffffff1614611244576040517f08c379a000000000000000000000000000000000000000000000000000000000815260040161123b90612886565b60405180910390fd5b600073ffffffffffffffffffffffffffffffffffffffff168273ffffffffffffffffffffffffffffffffffffffff1614156112b4576040517f08c379a00000000000000000000000000000000000000000000000000000000081526004016112ab906128c6565b60405180910390fd5b6112bf8383836118be565b6112ca600082611037565b6001600360008573ffffffffffffffffffffffffffffffffffffffff1673ffffffffffffffffffffffffffffffffffffffff168152602001908152602001600020600082825461131a9190612c32565b925050819055506001600360008473ffffffffffffffffffffffffffffffffffffffff1673ffffffffffffffffffffffffffffffffffffffff16815260200190815260200160002060008282546113719190612bab565b92505081905550816002600083815260200190815260200160002060006101000a81548173ffffffffffffffffffffffffffffffffffffffff021916908373ffffffffffffffffffffffffffffffffffffffff160217905550808273ffffffffffffffffffffffffffffffffffffffff168473ffffffffffffffffffffffffffffffffffffffff167fddf252ad1be2c89b69c2b068fc378daa952ba7f163c4a11628f55a4df523b3ef60405160405180910390a46114308383836118c3565b505050565b6000600760009054906101000a900473ffffffffffffffffffffffffffffffffffffffff16905081600760006101000a81548173ffffffffffffffffffffffffffffffffffffffff021916908373ffffffffffffffffffffffffffffffffffffffff1602179055508173ffffffffffffffffffffffffffffffffffffffff168173ffffffffffffffffffffffffffffffffffffffff167f8be0079c531659141344cd1fd0a4f28419497f9722a3daafe3b4186f6b6457e060405160405180910390a35050565b8173ffffffffffffffffffffffffffffffffffffffff168373ffffffffffffffffffffffffffffffffffffffff16141561156a576040517f08c379a0000000000000000000000000000000000000000000000000000000008152600401611561906128e6565b60405180910390fd5b80600560008573ffffffffffffffffffffffffffffffffffffffff1673ffffffffffffffffffffffffffffffffffffffff16815260200190815260200160002060008473ffffffffffffffffffffffffffffffffffffffff1673ffffffffffffffffffffffffffffffffffffffff16815260200190815260200160002060006101000a81548160ff0219169083151502179055508173ffffffffffffffffffffffffffffffffffffffff168373ffffffffffffffffffffffffffffffffffffffff167f17307eab39ab6107e8899845ad3d59bd9653f200f220920489ca2b5937696c318360405161165b9190612809565b60405180910390a3505050565b6116738484846111ce565b61167f848484846118c8565b6116be576040517f08c379a00000000000000000000000000000000000000000000000000000000081526004016116b590612846565b60405180910390fd5b50505050565b60606116cf82610fc3565b61170e576040517f08c379a0000000000000000000000000000000000000000000000000000000008152600401611705906129c6565b60405180910390fd5b600060066000848152602001908152602001600020805461172e90612d1c565b80601f016020809104026020016040519081016040528092919081815260200182805461175a90612d1c565b80156117a75780601f1061177c576101008083540402835291602001916117a7565b820191906000526020600020905b81548152906001019060200180831161178a57829003601f168201915b5050505050905060006117b8611a5f565b90506000815114156117ce578192505050611811565b6000825111156118035780826040516020016117eb92919061277e565b60405160208183030381529060405292505050611811565b61180c84611a9c565b925050505b919050565b6001816000016000828254019250508190555050565b611846828260405180602001604052806000815250611b43565b5050565b61185382610fc3565b611892576040517f08c379a000000000000000000000000000000000000000000000000000000000815260040161188990612986565b60405180910390fd5b806006600084815260200190815260200160002090805190602001906118b9929190611f48565b505050565b505050565b505050565b60006118e98473ffffffffffffffffffffffffffffffffffffffff16611b9e565b15611a52578373ffffffffffffffffffffffffffffffffffffffff1663150b7a0261191261102f565b8786866040518563ffffffff1660e01b815260040161193494939291906127bd565b602060405180830381600087803b15801561194e57600080fd5b505af192505050801561197f57506040513d601f19601f8201168201806040525081019061197c9190612348565b60015b611a02573d80600081146119af576040519150601f19603f3d011682016040523d82523d6000602084013e6119b4565b606091505b506000815114156119fa576040517f08c379a00000000000000000000000000000000000000000000000000000000081526004016119f190612846565b60405180910390fd5b805181602001fd5b63150b7a0260e01b7bffffffffffffffffffffffffffffffffffffffffffffffffffffffff1916817bffffffffffffffffffffffffffffffffffffffffffffffffffffffff191614915050611a57565b600190505b949350505050565b60606040518060400160405280600781526020017f697066733a2f2f00000000000000000000000000000000000000000000000000815250905090565b6060611aa782610fc3565b611ae6576040517f08c379a0000000000000000000000000000000000000000000000000000000008152600401611add90612a46565b60405180910390fd5b6000611af0611a5f565b90506000815111611b105760405180602001604052806000815250611b3b565b80611b1a84611bc1565b604051602001611b2b92919061277e565b6040516020818303038152906040525b915050919050565b611b4d8383611d6e565b611b5a60008484846118c8565b611b99576040517f08c379a0000000000000000000000000000000000000000000000000000000008152600401611b9090612846565b60405180910390fd5b505050565b6000808273ffffffffffffffffffffffffffffffffffffffff163b119050919050565b60606000821415611c09576040518060400160405280600181526020017f30000000000000000000000000000000000000000000000000000000000000008152509050611d69565b600082905060005b60008214611c3b578080611c2490612d7f565b915050600a82611c349190612c01565b9150611c11565b60008167ffffffffffffffff811115611c7d577f4e487b7100000000000000000000000000000000000000000000000000000000600052604160045260246000fd5b6040519080825280601f01601f191660200182016040528015611caf5781602001600182028036833780820191505090505b5090505b60008514611d6257600182611cc89190612c32565b9150600a85611cd79190612dc8565b6030611ce39190612bab565b60f81b818381518110611d1f577f4e487b7100000000000000000000000000000000000000000000000000000000600052603260045260246000fd5b60200101907effffffffffffffffffffffffffffffffffffffffffffffffffffffffffffff1916908160001a905350600a85611d5b9190612c01565b9450611cb3565b8093505050505b919050565b600073ffffffffffffffffffffffffffffffffffffffff168273ffffffffffffffffffffffffffffffffffffffff161415611dde576040517f08c379a0000000000000000000000000000000000000000000000000000000008152600401611dd5906129a6565b60405180910390fd5b611de781610fc3565b15611e27576040517f08c379a0000000000000000000000000000000000000000000000000000000008152600401611e1e906128a6565b60405180910390fd5b611e33600083836118be565b6001600360008473ffffffffffffffffffffffffffffffffffffffff1673ffffffffffffffffffffffffffffffffffffffff1681526020019081526020016000206000828254611e839190612bab565b92505081905550816002600083815260200190815260200160002060006101000a81548173ffffffffffffffffffffffffffffffffffffffff021916908373ffffffffffffffffffffffffffffffffffffffff160217905550808273ffffffffffffffffffffffffffffffffffffffff16600073ffffffffffffffffffffffffffffffffffffffff167fddf252ad1be2c89b69c2b068fc378daa952ba7f163c4a11628f55a4df523b3ef60405160405180910390a4611f44600083836118c3565b5050565b828054611f5490612d1c565b90600052602060002090601f016020900481019282611f765760008555611fbd565b82601f10611f8f57805160ff1916838001178555611fbd565b82800160010185558215611fbd579182015b82811115611fbc578251825591602001919060010190611fa1565b5b509050611fca9190611fce565b5090565b5b80821115611fe7576000816000905550600101611fcf565b5090565b6000611ffe611ff984612b06565b612ae1565b90508281526020810184848401111561201657600080fd5b612021848285612cda565b509392505050565b600061203c61203784612b37565b612ae1565b90508281526020810184848401111561205457600080fd5b61205f848285612cda565b509392505050565b60008135905061207681613434565b92915050565b60008135905061208b8161344b565b92915050565b6000813590506120a081613462565b92915050565b6000815190506120b581613462565b92915050565b600082601f8301126120cc57600080fd5b81356120dc848260208601611feb565b91505092915050565b600082601f8301126120f657600080fd5b8135612106848260208601612029565b91505092915050565b60008135905061211e81613479565b92915050565b60006020828403121561213657600080fd5b600061214484828501612067565b91505092915050565b6000806040838503121561216057600080fd5b600061216e85828601612067565b925050602061217f85828601612067565b9150509250929050565b60008060006060848603121561219e57600080fd5b60006121ac86828701612067565b93505060206121bd86828701612067565b92505060406121ce8682870161210f565b9150509250925092565b600080600080608085870312156121ee57600080fd5b60006121fc87828801612067565b945050602061220d87828801612067565b935050604061221e8782880161210f565b925050606085013567ffffffffffffffff81111561223b57600080fd5b612247878288016120bb565b91505092959194509250565b6000806040838503121561226657600080fd5b600061227485828601612067565b92505060206122858582860161207c565b9150509250929050565b600080604083850312156122a257600080fd5b60006122b085828601612067565b925050602083013567ffffffffffffffff8111156122cd57600080fd5b6122d9858286016120e5565b9150509250929050565b600080604083850312156122f657600080fd5b600061230485828601612067565b92505060206123158582860161210f565b9150509250929050565b60006020828403121561233157600080fd5b600061233f84828501612091565b91505092915050565b60006020828403121561235a57600080fd5b6000612368848285016120a6565b91505092915050565b60006020828403121561238357600080fd5b600082013567ffffffffffffffff81111561239d57600080fd5b6123a9848285016120e5565b91505092915050565b6000602082840312156123c457600080fd5b60006123d28482850161210f565b91505092915050565b6123e481612c66565b82525050565b6123f381612c78565b82525050565b600061240482612b68565b61240e8185612b7e565b935061241e818560208601612ce9565b61242781612eb5565b840191505092915050565b600061243d82612b73565b6124478185612b8f565b9350612457818560208601612ce9565b61246081612eb5565b840191505092915050565b600061247682612b73565b6124808185612ba0565b9350612490818560208601612ce9565b80840191505092915050565b60006124a9603283612b8f565b91506124b482612ec6565b604082019050919050565b60006124cc602683612b8f565b91506124d782612f15565b604082019050919050565b60006124ef602583612b8f565b91506124fa82612f64565b604082019050919050565b6000612512601c83612b8f565b915061251d82612fb3565b602082019050919050565b6000612535602483612b8f565b915061254082612fdc565b604082019050919050565b6000612558601983612b8f565b91506125638261302b565b602082019050919050565b600061257b602c83612b8f565b915061258682613054565b604082019050919050565b600061259e603883612b8f565b91506125a9826130a3565b604082019050919050565b60006125c1602a83612b8f565b91506125cc826130f2565b604082019050919050565b60006125e4602983612b8f565b91506125ef82613141565b604082019050919050565b6000612607602e83612b8f565b915061261282613190565b604082019050919050565b600061262a602083612b8f565b9150612635826131df565b602082019050919050565b600061264d603183612b8f565b915061265882613208565b604082019050919050565b6000612670602c83612b8f565b915061267b82613257565b604082019050919050565b6000612693602183612b8f565b915061269e826132a6565b604082019050919050565b60006126b6602083612b8f565b91506126c1826132f5565b602082019050919050565b60006126d9602f83612b8f565b91506126e48261331e565b604082019050919050565b60006126fc602183612b8f565b91506127078261336d565b604082019050919050565b600061271f603183612b8f565b915061272a826133bc565b604082019050919050565b6000612742601583612b8f565b915061274d8261340b565b602082019050919050565b61276181612cd0565b82525050565b6000612773828461246b565b915081905092915050565b600061278a828561246b565b9150612796828461246b565b91508190509392505050565b60006020820190506127b760008301846123db565b92915050565b60006080820190506127d260008301876123db565b6127df60208301866123db565b6127ec6040830185612758565b81810360608301526127fe81846123f9565b905095945050505050565b600060208201905061281e60008301846123ea565b92915050565b6000602082019050818103600083015261283e8184612432565b905092915050565b6000602082019050818103600083015261285f8161249c565b9050919050565b6000602082019050818103600083015261287f816124bf565b9050919050565b6000602082019050818103600083015261289f816124e2565b9050919050565b600060208201905081810360008301526128bf81612505565b9050919050565b600060208201905081810360008301526128df81612528565b9050919050565b600060208201905081810360008301526128ff8161254b565b9050919050565b6000602082019050818103600083015261291f8161256e565b9050919050565b6000602082019050818103600083015261293f81612591565b9050919050565b6000602082019050818103600083015261295f816125b4565b9050919050565b6000602082019050818103600083015261297f816125d7565b9050919050565b6000602082019050818103600083015261299f816125fa565b9050919050565b600060208201905081810360008301526129bf8161261d565b9050919050565b600060208201905081810360008301526129df81612640565b9050919050565b600060208201905081810360008301526129ff81612663565b9050919050565b60006020820190508181036000830152612a1f81612686565b9050919050565b60006020820190508181036000830152612a3f816126a9565b9050919050565b60006020820190508181036000830152612a5f816126cc565b9050919050565b60006020820190508181036000830152612a7f816126ef565b9050919050565b60006020820190508181036000830152612a9f81612712565b9050919050565b60006020820190508181036000830152612abf81612735565b9050919050565b6000602082019050612adb6000830184612758565b92915050565b6000612aeb612afc565b9050612af78282612d4e565b919050565b6000604051905090565b600067ffffffffffffffff821115612b2157612b20612e86565b5b612b2a82612eb5565b9050602081019050919050565b600067ffffffffffffffff821115612b5257612b51612e86565b5b612b5b82612eb5565b9050602081019050919050565b600081519050919050565b600081519050919050565b600082825260208201905092915050565b600082825260208201905092915050565b600081905092915050565b6000612bb682612cd0565b9150612bc183612cd0565b9250827fffffffffffffffffffffffffffffffffffffffffffffffffffffffffffffffff03821115612bf657612bf5612df9565b5b828201905092915050565b6000612c0c82612cd0565b9150612c1783612cd0565b925082612c2757612c26612e28565b5b828204905092915050565b6000612c3d82612cd0565b9150612c4883612cd0565b925082821015612c5b57612c5a612df9565b5b828203905092915050565b6000612c7182612cb0565b9050919050565b60008115159050919050565b60007fffffffff0000000000000000000000000000000000000000000000000000000082169050919050565b600073ffffffffffffffffffffffffffffffffffffffff82169050919050565b6000819050919050565b82818337600083830152505050565b60005b83811015612d07578082015181840152602081019050612cec565b83811115612d16576000848401525b50505050565b60006002820490506001821680612d3457607f821691505b60208210811415612d4857612d47612e57565b5b50919050565b612d5782612eb5565b810181811067ffffffffffffffff82111715612d7657612d75612e86565b5b80604052505050565b6000612d8a82612cd0565b91507fffffffffffffffffffffffffffffffffffffffffffffffffffffffffffffffff821415612dbd57612dbc612df9565b5b600182019050919050565b6000612dd382612cd0565b9150612dde83612cd0565b925082612dee57612ded612e28565b5b828206905092915050565b7f4e487b7100000000000000000000000000000000000000000000000000000000600052601160045260246000fd5b7f4e487b7100000000000000000000000000000000000000000000000000000000600052601260045260246000fd5b7f4e487b7100000000000000000000000000000000000000000000000000000000600052602260045260246000fd5b7f4e487b7100000000000000000000000000000000000000000000000000000000600052604160045260246000fd5b6000601f19601f8301169050919050565b7f4552433732313a207472616e7366657220746f206e6f6e20455243373231526560008201527f63656976657220696d706c656d656e7465720000000000000000000000000000602082015250565b7f4f776e61626c653a206e6577206f776e657220697320746865207a65726f206160008201527f6464726573730000000000000000000000000000000000000000000000000000602082015250565b7f4552433732313a207472616e736665722066726f6d20696e636f72726563742060008201527f6f776e6572000000000000000000000000000000000000000000000000000000602082015250565b7f4552433732313a20746f6b656e20616c7265616479206d696e74656400000000600082015250565b7f4552433732313a207472616e7366657220746f20746865207a65726f2061646460008201527f7265737300000000000000000000000000000000000000000000000000000000602082015250565b7f4552433732313a20617070726f766520746f2063616c6c657200000000000000600082015250565b7f4552433732313a206f70657261746f7220717565727920666f72206e6f6e657860008201527f697374656e7420746f6b656e0000000000000000000000000000000000000000602082015250565b7f4552433732313a20617070726f76652063616c6c6572206973206e6f74206f7760008201527f6e6572206e6f7220617070726f76656420666f7220616c6c0000000000000000602082015250565b7f4552433732313a2062616c616e636520717565727920666f7220746865207a6560008201527f726f206164647265737300000000000000000000000000000000000000000000602082015250565b7f4552433732313a206f776e657220717565727920666f72206e6f6e657869737460008201527f656e7420746f6b656e0000000000000000000000000000000000000000000000602082015250565b7f45524337323155524953746f726167653a2055524920736574206f66206e6f6e60008201527f6578697374656e7420746f6b656e000000000000000000000000000000000000602082015250565b7f4552433732313a206d696e7420746f20746865207a65726f2061646472657373600082015250565b7f45524337323155524953746f726167653a2055524920717565727920666f722060008201527f6e6f6e6578697374656e7420746f6b656e000000000000000000000000000000602082015250565b7f4552433732313a20617070726f76656420717565727920666f72206e6f6e657860008201527f697374656e7420746f6b656e0000000000000000000000000000000000000000602082015250565b7f6e65656420746f20706179206d6f7265207468616e20302e303031206574686560008201527f7200000000000000000000000000000000000000000000000000000000000000602082015250565b7f4f776e61626c653a2063616c6c6572206973206e6f7420746865206f776e6572600082015250565b7f4552433732314d657461646174613a2055524920717565727920666f72206e6f60008201527f6e6578697374656e7420746f6b656e0000000000000000000000000000000000602082015250565b7f4552433732313a20617070726f76616c20746f2063757272656e74206f776e6560008201527f7200000000000000000000000000000000000000000000000000000000000000602082015250565b7f4552433732313a207472616e736665722063616c6c6572206973206e6f74206f60008201527f776e6572206e6f7220617070726f766564000000000000000000000000000000602082015250565b7f6e667420697320616c7265616479206d696e7465640000000000000000000000600082015250565b61343d81612c66565b811461344857600080fd5b50565b61345481612c78565b811461345f57600080fd5b50565b61346b81612c84565b811461347657600080fd5b50565b61348281612cd0565b811461348d57600080fd5b5056fea2646970667358221220e095bf551586ff02bb1796d724aaee569c1bde485e1227b3c743d4944d59ee2864736f6c63430008040033",
  "linkReferences": {},
  "deployedLinkReferences": {}
}